:0400000054EF00F0C9
:100008003182FACF01F0FBCF02F0E9CF03F0EACF5B
:1000180004F0E1CF05F0E2CF06F0D9CF07F0DACF50
:1000280008F0F3CF09F0F4CF0AF0F6CF0BF0F7CFD2
:100038000CF0F8CF0DF0F5CF0EF031C00FF032C054
:1000480010F033C011F034C012F0F2BAF2A402D0AA
:100058001FEC06F012C034F011C033F010C032F0BB
:100068000FC031F00EC0F5FF0DC0F8FF0CC0F7FF50
:100078000BC0F6FF0AC0F4FF09C0F3FF08C0DAFF9F
:1000880007C0D9FF06C0E2FF05C0E1FF04C0EAFFD0
:1000980003C0E9FF02C0FBFF01C0FAFF3192110063
:0400A80008EF06F067
:100600000001000A006400E80310272564200A00A6
:07061000300A00310A00006E
:1006180044EC06F0938093840F0139910F013995CA
:100628009598959A959C959E929C8C988C9A8C9C62
:100638008C9E899CEDEC05F0D1EC05F0000E0001D4
:10064800856F000E846F000E0001816F000E806FB1
:1006580020EE8AF010EE60F01F0EDBCFE3FFE80615
:10066800FCE2000E0001876F000E866F60C088F004
:1006780061C089F081A011D0000E0001816F010EC8
:10068800806F020E2C6E860E2B6E990EE82EFED70A
:100698002B2EFCD72C2EFAD700F000018005000184
:1006A8008111D8A491D0D89000018635D96E000167
:1006B8008735DA6E600ED926000EDA22DECF88F092
:1006C800DDCF89F0010E000186250001866F000E3E
:1006D800000187210001876F000E0001816F000E65
:1006E800806F030E0001861900018711D8A405D078
:1006F800000E0001876F000E866F0001885100010F
:10070800601916E10001895100016119D8A410D0BF
:100718008C988C9A8C9C8C9E898C030E2C6E8A0EDD
:100728002B6E560EE82EFED72B2EFCD72C2EFAD782
:10073800000188510001621921E10001895100017D
:100748006319D8A41BD0130E1F6E060E206E3AEC48
:1007580004F08C988C9A8C9C8C8E899C030E2C6E41
:100768008A0E2B6E560EE82EFED72B2EFCD72C2E7B
:10077800FAD78C988C9A8C9C8C9E899C0001885105
:100788000001641921E10001895100016519D8A40B
:100798001BD0100E1F6E060E206E3AEC04F08C98DB
:1007A8008C9A8C8C8C9E899C030E2C6E8A0E2B6ED8
:1007B800560EE82EFED72B2EFCD72C2EFAD78C9867
:1007C8008C9A8C9C8C9E899CF2A454D7010E0001B3
:1007D80084250001846F000E000185210001856FCA
:1007E800D1EC05F0000188510001841905E10001F0
:1007F800895100018519D8A43DD7898C000E0001C4
:10080800856F000E846F330E2C6EBB0E2B6EE00EC0
:10081800E82EFED72B2EFCD72C2EFAD7080E0BEC81
:1008280005F01BC082F01CC083F00B0E1F6E060E75
:10083800206E82C021F083C022F03AEC04F00B0E47
:100848001F6E060E206E82C021F083C022F03AECA3
:1008580004F0330E2C6EBB0E2B6EE00EE82EFED786
:100868002B2EFCD72C2EFAD7899C04D7210E246E68
:10087800000E256E7DD0250E2A18D8B404D02A5033
:1008880067EC06F075D0000E266E1FC0F6FF20C07C
:10089800F7FF1F4A202A0800F5CF2AF02A50000A3D
:1008A800D8B41200640AD8B403D00D0AD8A460D012
:1008B80024C0D9FF25C0DAFFDECF28F0DDCF29F02C
:1008C800020E2426000E252229AE06D0030E26127B
:1008D800286C291ED8B0292A010E2A6E050E2A185E
:1008E800D8B412D02A50020D010EF324F66E060E6B
:1008F800F420F76E0900F550285C0900F5502958D6
:10090800D8A002D02A2AEAD726C023F0030E23163D
:10091800D8B403D02D0E67EC06F02AC027F024D0F7
:100928002750020D010EF324F66E060EF420F76E22
:100938000900F5CF15F00A00F5CF16F028C013F01E
:1009480029C014F03DEC05F013C01AF014C01BF0D8
:10095800000E1D6E0A0E1C6EB0EC05F01A50300F1A
:100968002A6E2A5067EC06F027062728D8A4D8D77D
:100978001FC0F6FF20C0F7FF1F4A202A0800F5CF46
:100988002AF02A50D8B4120076D7000E186E16AE88
:1009980006D0156C161ED8B0162A010E186E14AEA5
:1009A80006D0136C141ED8B0142A010E181A000EA3
:1009B8001A6E000E196E15501610D8B41CD0010E00
:1009C800176E04D0D89015361636172A16AEFAD7F1
:1009D800D89019361A361550135C16501458D8A0EA
:1009E80005D01550135E1650145A1980D890163237
:1009F8001532172EEDD71850D8B404D0196C1A1E1A
:100A0800D8B01A2A19C013F01AC014F012001D6EBB
:100A1800000E216E000E206E000E1F6E000E1E6E60
:100A2800000E236E000E226E235010E10A0E225C87
:100A3800D8B00CD01D5066EC05F020501324206E61
:100A480021501420216E224A232AEED720C013F009
:100A580021C014F0000E166E0A0E156EC9EC04F0D3
:100A680013C01EF014C01FF01EC01BF01FC01CF0E6
:100A78001200000E186E000E176E15501610D8B41E
:100A88001CD0010E196E04D0D89015361636192AC6
:100A980016AEFAD7D890173618361550135C16507C
:100AA8001458D8A005D01550135E1650145A178044
:100AB800D89016321532192EEDD717C013F018C07A
:100AC80014F01200176EC294C296C298C29AC29CC1
:100AD800C230156E15301F0B156E175015121536CE
:100AE8001536C2501518830B1518C26E030E156EF5
:100AF800980EE82EFED7152EFCD7C282C2B2FED7BA
:100B0800C450166E156AC3501524136E000E1620B5
:100B1800146E1200000E8D6E000E8C6E000E896E23
:100B2800000E8A6E000E8B6E070E966E92689368A2
:100B3800BF0E946E95683C0E0F013A6F3F0E0F0181
:100B4800396F0F013B69070E0F013C6F2F0E0F0124
:100B5800386F6168F19E12001C501D10D8B418D06F
:100B6800010E1E6E04D0D8901C361D361E2A1DAEEE
:100B7800FAD71C501A5C1D501B58D8A004D01C5022
:100B88001A5E1D501B5AD8901D321C321E2EF1D7EA
:100B98001AC01AF01BC01BF01200170ED56E670E94
:100BA800D76E690ED66ED650D7CF15F0166A15C017
:100BB80016F0156A15102D6E16502E6EF294F28AE4
:100BC800EA0E136E0C0E146E6CEC06F071EC06F067
:100BD8001200030E0F01386F030E926E0E0E0F01F6
:100BE800396F070E936EF30EC116FC0EC116C08046
:100BF800C082C084C08EC280820E136EDE0EE82EC4
:100C0800FED7132EFCD71200680EF66E0C0EF76E88
:100C1800000EF86E00EE8AF010EE20F00900F5CF15
:100C2800EEFFE550E150FAE131903192000EF86E96
:100C380000010CEF03F0F2942E50D76E2DC0D6FFB2
:100C48002F503010D8B4120001D812000500FA6EE7
:100C58002F50FD6E3050FE6EF850FF6EFA501200A5
:100C6800030006005A00B4000E016801D0023804DF
:100C7800A00508077008D809100EE0105019C02107
:100C880073EC06F08EEC05F05AEC06F0D1EC05F0AA
:100C98004FEC06F01200080EB86E900EAB6E240EE4
:100CA800AC6E080EAF6E000EB06E1200500ED36E12
:100CB800040ED26E000E9B6E1200136E9EA8FED715
:100CC80013C0ADFF1200146E145061EC06F0120050
:100CD80013C02FF014C030F01200D58E1200D09E31
:040CE80012001200E4
:020000040020DA
:08000000FFFFFFFFFFFFFFFF00
:020000040030CA
:0E000000FF281F3CFFBF85FF0FC00FE00F4021
:00000001FF
